8=FIX.4.4|9=71|35=A|34=1|49=ORDERGEN|52=20260415-14:20:26.637|56=ORDERACC|98=0|108=30|10=154|8=FIX.4.4|9=59|35=0|34=2|49=ORDERGEN|52=20260415-14:20:56.993|56=ORDERACC|10=127|8=FIX.4.4|9=59|35=0|34=3|49=ORDERGEN|52=20260415-14:21:27.277|56=ORDERACC|10=122|8=FIX.4.4|9=59|35=0|34=4|49=ORDERGEN|52=20260415-14:21:57.526|56=ORDERACC|10=123|8=FIX.4.4|9=59|35=0|34=5|49=ORDERGEN|52=20260415-14:22:27.681|56=ORDERACC|10=124|8=FIX.4.4|9=71|35=A|34=6|49=ORDERGEN|52=20260415-14:22:47.013|56=ORDERACC|98=0|108=30|10=152|8=FIX.4.4|9=59|35=0|34=7|49=ORDERGEN|52=20260415-14:23:17.418|56=ORDERACC|10=124|8=FIX.4.4|9=59|35=0|34=8|49=ORDERGEN|52=20260415-14:23:47.621|56=ORDERACC|10=124|8=FIX.4.4|9=71|35=A|34=9|49=ORDERGEN|52=20260415-14:24:16.426|56=ORDERACC|98=0|108=30|10=161|8=FIX.4.4|9=72|35=A|34=10|49=ORDERGEN|52=20260415-14:24:38.870|56=ORDERACC|98=0|108=30|10=209|8=FIX.4.4|9=60|35=0|34=11|49=ORDERGEN|52=20260415-14:25:09.119|56=ORDERACC|10=160|8=FIX.4.4|9=72|35=A|34=12|49=ORDERGEN|52=20260415-14:25:38.627|56=ORDERACC|98=0|108=30|10=212|8=FIX.4.4|9=60|35=0|34=13|49=ORDERGEN|52=20260415-14:26:08.909|56=ORDERACC|10=169|8=FIX.4.4|9=72|35=A|34=14|49=ORDERGEN|52=20260415-14:26:24.842|56=ORDERACC|98=0|108=30|10=209|8=FIX.4.4|9=60|35=0|34=15|49=ORDERGEN|52=20260415-14:26:55.147|56=ORDERACC|10=167|8=FIX.4.4|9=60|35=0|34=16|49=ORDERGEN|52=20260415-14:27:25.353|56=ORDERACC|10=165|8=FIX.4.4|9=60|35=0|34=17|49=ORDERGEN|52=20260415-14:27:55.599|56=ORDERACC|10=181|8=FIX.4.4|9=60|35=0|34=18|49=ORDERGEN|52=20260415-14:28:25.789|56=ORDERACC|10=181|8=FIX.4.4|9=60|35=0|34=19|49=ORDERGEN|52=20260415-14:28:56.028|56=ORDERACC|10=172|8=FIX.4.4|9=60|35=0|34=20|49=ORDERGEN|52=20260415-14:29:26.219|56=ORDERACC|10=164|8=FIX.4.4|9=60|35=0|34=21|49=ORDERGEN|52=20260415-14:29:56.427|56=ORDERACC|10=169|8=FIX.4.4|9=60|35=0|34=22|49=ORDERGEN|52=20260415-14:30:26.643|56=ORDERACC|10=159|8=FIX.4.4|9=60|35=0|34=23|49=ORDERGEN|52=20260415-14:30:56.853|56=ORDERACC|10=166|8=FIX.4.4|9=60|35=0|34=24|49=ORDERGEN|52=20260415-14:31:27.072|56=ORDERACC|10=159|8=FIX.4.4|9=60|35=0|34=25|49=ORDERGEN|52=20260415-14:31:57.307|56=ORDERACC|10=164|8=FIX.4.4|9=60|35=0|34=26|49=ORDERGEN|52=20260415-14:32:27.493|56=ORDERACC|10=169|8=FIX.4.4|9=60|35=0|34=27|49=ORDERGEN|52=20260415-14:32:57.676|56=ORDERACC|10=176|8=FIX.4.4|9=60|35=0|34=28|49=ORDERGEN|52=20260415-14:33:27.876|56=ORDERACC|10=177|8=FIX.4.4|9=60|35=0|34=29|49=ORDERGEN|52=20260415-14:33:58.061|56=ORDERACC|10=168|8=FIX.4.4|9=72|35=A|34=30|49=ORDERGEN|52=20260415-14:37:22.227|56=ORDERACC|98=0|108=30|10=204|8=FIX.4.4|9=72|35=A|34=31|49=ORDERGEN|52=20260415-14:37:37.106|56=ORDERACC|98=0|108=30|10=207|8=FIX.4.4|9=72|35=A|34=32|49=ORDERGEN|52=20260415-14:38:20.744|56=ORDERACC|98=0|108=30|10=209|8=FIX.4.4|9=60|35=0|34=33|49=ORDERGEN|52=20260415-14:38:51.147|56=ORDERACC|10=166|8=FIX.4.4|9=60|35=0|34=34|49=ORDERGEN|52=20260415-14:39:21.317|56=ORDERACC|10=164|8=FIX.4.4|9=60|35=0|34=35|49=ORDERGEN|52=20260415-14:39:51.518|56=ORDERACC|10=171|8=FIX.4.4|9=60|35=0|34=36|49=ORDERGEN|52=20260415-14:40:21.727|56=ORDERACC|10=163|8=FIX.4.4|9=60|35=0|34=37|49=ORDERGEN|52=20260415-14:40:51.903|56=ORDERACC|10=163|8=FIX.4.4|9=72|35=A|34=38|49=ORDERGEN|52=20260415-14:41:33.224|56=ORDERACC|98=0|108=30|10=206|8=FIX.4.4|9=60|35=0|34=39|49=ORDERGEN|52=20260415-14:42:03.515|56=ORDERACC|10=163|8=FIX.4.4|9=60|35=0|34=40|49=ORDERGEN|52=20260415-14:42:33.686|56=ORDERACC|10=167|8=FIX.4.4|9=60|35=0|34=41|49=ORDERGEN|52=20260415-14:43:03.900|56=ORDERACC|10=155|8=FIX.4.4|9=60|35=0|34=42|49=ORDERGEN|52=20260415-14:43:34.072|56=ORDERACC|10=160|8=FIX.4.4|9=60|35=0|34=43|49=ORDERGEN|52=20260415-14:44:04.273|56=ORDERACC|10=162|8=FIX.4.4|9=60|35=0|34=44|49=ORDERGEN|52=20260415-14:44:34.489|56=ORDERACC|10=175|8=FIX.4.4|9=60|35=0|34=45|49=ORDERGEN|52=20260415-14:45:04.707|56=ORDERACC|10=167|8=FIX.4.4|9=60|35=0|34=46|49=ORDERGEN|52=20260415-14:45:34.875|56=ORDERACC|10=177|8=FIX.4.4|9=60|35=0|34=47|49=ORDERGEN|52=20260415-14:46:05.109|56=ORDERACC|10=167|8=FIX.4.4|9=72|35=A|34=48|49=ORDERGEN|52=20260415-14:46:35.343|56=ORDERACC|98=0|108=30|10=216|8=FIX.4.4|9=60|35=0|34=49|49=ORDERGEN|52=20260415-14:47:06.861|56=ORDERACC|10=176|8=FIX.4.4|9=69|35=1|34=50|49=ORDERGEN|52=20260415-14:47:43.244|56=ORDERACC|112=TEST|10=192|8=FIX.4.4|9=69|35=0|34=51|49=ORDERGEN|52=20260415-14:47:43.265|56=ORDERACC|112=TEST|10=195|8=FIX.4.4|9=60|35=0|34=52|49=ORDERGEN|52=20260415-14:48:13.530|56=ORDERACC|10=162|8=FIX.4.4|9=60|35=0|34=53|49=ORDERGEN|52=20260415-14:48:43.756|56=ORDERACC|10=176|8=FIX.4.4|9=60|35=0|34=54|49=ORDERGEN|52=20260415-14:49:13.997|56=ORDERACC|10=182|8=FIX.4.4|9=60|35=0|34=55|49=ORDERGEN|52=20260415-14:49:44.227|56=ORDERACC|10=173|8=FIX.4.4|9=60|35=0|34=56|49=ORDERGEN|52=20260415-14:50:14.430|56=ORDERACC|10=159|8=FIX.4.4|9=60|35=0|34=57|49=ORDERGEN|52=20260415-14:50:44.640|56=ORDERACC|10=166|8=FIX.4.4|9=60|35=0|34=58|49=ORDERGEN|52=20260415-14:51:14.840|56=ORDERACC|10=167|8=FIX.4.4|9=60|35=0|34=59|49=ORDERGEN|52=20260415-14:51:45.049|56=ORDERACC|10=173|8=FIX.4.4|9=72|35=A|34=60|49=ORDERGEN|52=20260415-14:52:50.824|56=ORDERACC|98=0|108=30|10=208|8=FIX.4.4|9=60|35=0|34=61|49=ORDERGEN|52=20260415-14:53:21.685|56=ORDERACC|10=168|8=FIX.4.4|9=60|35=0|34=62|49=ORDERGEN|52=20260415-14:53:51.884|56=ORDERACC|10=173|8=FIX.4.4|9=60|35=0|34=63|49=ORDERGEN|52=20260415-14:54:22.127|56=ORDERACC|10=163|8=FIX.4.4|9=60|35=0|34=64|49=ORDERGEN|52=20260415-14:54:52.320|56=ORDERACC|10=162|8=FIX.4.4|9=72|35=A|34=65|49=ORDERGEN|52=20260415-15:16:20.747|56=ORDERACC|98=0|108=30|10=215|8=FIX.4.4|9=60|35=0|34=66|49=ORDERGEN|52=20260415-15:16:53.102|56=ORDERACC|10=162|8=FIX.4.4|9=72|35=A|34=67|49=ORDERGEN|52=20260415-15:18:55.155|56=ORDERACC|98=0|108=30|10=220|8=FIX.4.4|9=69|35=1|34=68|49=ORDERGEN|52=20260415-15:19:35.006|56=ORDERACC|112=TEST|10=198|8=FIX.4.4|9=69|35=0|34=69|49=ORDERGEN|52=20260415-15:19:35.010|56=ORDERACC|112=TEST|10=193|8=FIX.4.4|9=60|35=0|34=70|49=ORDERGEN|52=20260415-15:20:05.274|56=ORDERACC|10=159|8=FIX.4.4|9=60|35=0|34=71|49=ORDERGEN|52=20260415-15:20:35.761|56=ORDERACC|10=164|8=FIX.4.4|9=72|35=A|34=72|49=ORDERGEN|52=20260415-15:20:47.498|56=ORDERACC|98=0|108=30|10=220|8=FIX.4.4|9=60|35=0|34=73|49=ORDERGEN|52=20260415-15:21:17.939|56=ORDERACC|10=174|8=FIX.4.4|9=60|35=0|34=74|49=ORDERGEN|52=20260415-15:21:48.139|56=ORDERACC|10=171|8=FIX.4.4|9=157|35=D|34=75|49=ORDERGEN|52=20260415-15:22:03.298|56=ORDERACC|11=4bf0a973-684b-4e0b-8df4-48d7e29f1daa|38=100|40=2|44=50|54=1|55=VALE3|60=20260415-15:22:03.296|10=059|8=FIX.4.4|9=69|35=1|34=76|49=ORDERGEN|52=20260415-15:22:57.345|56=ORDERACC|112=TEST|10=201|8=FIX.4.4|9=69|35=0|34=77|49=ORDERGEN|52=20260415-15:22:59.227|56=ORDERACC|112=TEST|10=202|8=FIX.4.4|9=72|35=A|34=78|49=ORDERGEN|52=20260415-15:23:21.383|56=ORDERACC|98=0|108=30|10=214|8=FIX.4.4|9=69|35=1|34=79|49=ORDERGEN|52=20260415-15:23:58.616|56=ORDERACC|112=TEST|10=207|8=FIX.4.4|9=69|35=0|34=80|49=ORDERGEN|52=20260415-15:23:58.635|56=ORDERACC|112=TEST|10=199|8=FIX.4.4|9=72|35=A|34=81|49=ORDERGEN|52=20260415-15:25:40.139|56=ORDERACC|98=0|108=30|10=210|8=FIX.4.4|9=69|35=1|34=82|49=ORDERGEN|52=20260415-15:26:28.959|56=ORDERACC|112=TEST|10=211|8=FIX.4.4|9=69|35=0|34=83|49=ORDERGEN|52=20260415-15:26:28.989|56=ORDERACC|112=TEST|10=214|8=FIX.4.4|9=60|35=0|34=84|49=ORDERGEN|52=20260415-15:27:00.838|56=ORDERACC|10=172|8=FIX.4.4|9=157|35=D|34=85|49=ORDERGEN|52=20260415-15:27:01.504|56=ORDERACC|11=ffe19689-8f9b-49ce-b191-3a7d89550460|38=50|40=2|44=100|54=1|55=vale3|60=20260415-15:27:01.502|10=006|8=FIX.4.4|9=158|35=D|34=86|49=ORDERGEN|52=20260415-15:27:24.557|56=ORDERACC|11=48f5222e-2e77-466e-8116-811a75cd517e|38=900|40=2|44=100|54=1|55=PETR4|60=20260415-15:27:24.557|10=119|8=FIX.4.4|9=157|35=D|34=87|49=ORDERGEN|52=20260415-15:27:40.650|56=ORDERACC|11=d21b08b7-4952-41c2-b2a0-8b23ca62cefc|38=10|40=2|44=300|54=2|55=VALE3|60=20260415-15:27:40.649|10=243|8=FIX.4.4|9=60|35=0|34=88|49=ORDERGEN|52=20260415-15:28:11.013|56=ORDERACC|10=164|8=FIX.4.4|9=60|35=0|34=89|49=ORDERGEN|52=20260415-15:28:41.378|56=ORDERACC|10=182|8=FIX.4.4|9=60|35=0|34=90|49=ORDERGEN|52=20260415-15:29:11.762|56=ORDERACC|10=169|8=FIX.4.4|9=60|35=0|34=91|49=ORDERGEN|52=20260415-15:29:42.146|56=ORDERACC|10=170|8=FIX.4.4|9=60|35=0|34=92|49=ORDERGEN|52=20260415-15:30:12.458|56=ORDERACC|10=166|8=FIX.4.4|9=60|35=0|34=93|49=ORDERGEN|52=20260415-15:30:42.846|56=ORDERACC|10=171|8=FIX.4.4|9=60|35=0|34=94|49=ORDERGEN|52=20260415-15:31:13.180|56=ORDERACC|10=162|8=FIX.4.4|9=60|35=0|34=95|49=ORDERGEN|52=20260415-15:31:43.516|56=ORDERACC|10=169|8=FIX.4.4|9=60|35=0|34=96|49=ORDERGEN|52=20260415-15:32:13.866|56=ORDERACC|10=176|8=FIX.4.4|9=60|35=0|34=97|49=ORDERGEN|52=20260415-15:32:44.198|56=ORDERACC|10=179|8=FIX.4.4|9=60|35=0|34=98|49=ORDERGEN|52=20260415-15:33:14.584|56=ORDERACC|10=177|8=FIX.4.4|9=60|35=0|34=99|49=ORDERGEN|52=20260415-15:33:44.901|56=ORDERACC|10=174|8=FIX.4.4|9=61|35=0|34=100|49=ORDERGEN|52=20260415-15:34:15.169|56=ORDERACC|10=211|8=FIX.4.4|9=61|35=0|34=101|49=ORDERGEN|52=20260415-15:34:45.469|56=ORDERACC|10=218|8=FIX.4.4|9=61|35=0|34=102|49=ORDERGEN|52=20260415-15:35:15.770|56=ORDERACC|10=212|8=FIX.4.4|9=61|35=0|34=103|49=ORDERGEN|52=20260415-15:35:46.120|56=ORDERACC|10=206|8=FIX.4.4|9=61|35=0|34=104|49=ORDERGEN|52=20260415-15:36:16.469|56=ORDERACC|10=221|8=FIX.4.4|9=61|35=0|34=105|49=ORDERGEN|52=20260415-15:36:46.869|56=ORDERACC|10=229|8=FIX.4.4|9=61|35=0|34=106|49=ORDERGEN|52=20260415-15:37:17.228|56=ORDERACC|10=218|8=FIX.4.4|9=61|35=0|34=107|49=ORDERGEN|52=20260415-15:37:47.571|56=ORDERACC|10=223|8=FIX.4.4|9=61|35=0|34=108|49=ORDERGEN|52=20260415-15:38:18.023|56=ORDERACC|10=215|8=FIX.4.4|9=61|35=0|34=109|49=ORDERGEN|52=20260415-15:38:48.334|56=ORDERACC|10=224|8=FIX.4.4|9=61|35=0|34=110|49=ORDERGEN|52=20260415-15:39:18.675|56=ORDERACC|10=222|8=FIX.4.4|9=61|35=0|34=111|49=ORDERGEN|52=20260415-15:39:49.039|56=ORDERACC|10=221|8=FIX.4.4|9=61|35=0|34=112|49=ORDERGEN|52=20260415-15:40:19.375|56=ORDERACC|10=214|8=FIX.4.4|9=61|35=0|34=113|49=ORDERGEN|52=20260415-15:40:49.710|56=ORDERACC|10=211|8=FIX.4.4|9=61|35=0|34=114|49=ORDERGEN|52=20260415-15:41:20.013|56=ORDERACC|10=198|8=FIX.4.4|9=61|35=0|34=115|49=ORDERGEN|52=20260415-15:41:50.326|56=ORDERACC|10=209|8=FIX.4.4|9=61|35=0|34=116|49=ORDERGEN|52=20260415-15:42:20.695|56=ORDERACC|10=217|8=FIX.4.4|9=61|35=0|34=117|49=ORDERGEN|52=20260415-15:42:51.012|56=ORDERACC|10=205|8=FIX.4.4|9=61|35=0|34=118|49=ORDERGEN|52=20260415-15:43:21.327|56=ORDERACC|10=213|8=FIX.4.4|9=61|35=0|34=119|49=ORDERGEN|52=20260415-15:43:51.663|56=ORDERACC|10=220|8=FIX.4.4|9=61|35=0|34=120|49=ORDERGEN|52=20260415-15:44:22.046|56=ORDERACC|10=206|8=FIX.4.4|9=61|35=0|34=121|49=ORDERGEN|52=20260415-15:44:52.363|56=ORDERACC|10=212|8=FIX.4.4|9=61|35=0|34=122|49=ORDERGEN|52=20260415-15:45:22.731|56=ORDERACC|10=210|8=FIX.4.4|9=61|35=0|34=123|49=ORDERGEN|52=20260415-15:45:53.049|56=ORDERACC|10=217|8=FIX.4.4|9=61|35=0|34=124|49=ORDERGEN|52=20260415-15:46:23.347|56=ORDERACC|10=217|8=FIX.4.4|9=61|35=0|34=125|49=ORDERGEN|52=20260415-15:46:53.683|56=ORDERACC|10=224|8=FIX.4.4|9=61|35=0|34=126|49=ORDERGEN|52=20260415-15:47:24.000|56=ORDERACC|10=207|8=FIX.4.4|9=61|35=0|34=127|49=ORDERGEN|52=20260415-15:47:54.350|56=ORDERACC|10=219|8=FIX.4.4|9=61|35=0|34=128|49=ORDERGEN|52=20260415-15:48:24.686|56=ORDERACC|10=230|8=FIX.4.4|9=61|35=0|34=129|49=ORDERGEN|52=20260415-15:48:55.053|56=ORDERACC|10=223|8=FIX.4.4|9=61|35=0|34=130|49=ORDERGEN|52=20260415-15:49:25.419|56=ORDERACC|10=219|8=FIX.4.4|9=61|35=0|34=131|49=ORDERGEN|52=20260415-15:49:55.786|56=ORDERACC|10=230|8=FIX.4.4|9=61|35=0|34=132|49=ORDERGEN|52=20260415-15:50:26.253|56=ORDERACC|10=210|8=FIX.4.4|9=61|35=0|34=133|49=ORDERGEN|52=20260415-15:50:56.638|56=ORDERACC|10=221|8=FIX.4.4|9=61|35=0|34=134|49=ORDERGEN|52=20260415-15:51:26.988|56=ORDERACC|10=228|8=FIX.4.4|9=61|35=0|34=135|49=ORDERGEN|52=20260415-15:51:57.338|56=ORDERACC|10=222|8=FIX.4.4|9=61|35=0|34=136|49=ORDERGEN|52=20260415-15:52:27.656|56=ORDERACC|10=224|8=FIX.4.4|9=61|35=0|34=137|49=ORDERGEN|52=20260415-15:52:57.973|56=ORDERACC|10=230|8=FIX.4.4|9=61|35=0|34=138|49=ORDERGEN|52=20260415-15:53:28.322|56=ORDERACC|10=218|8=FIX.4.4|9=73|35=A|34=139|49=ORDERGEN|52=20260415-15:54:12.804|56=ORDERACC|98=0|108=30|10=007|8=FIX.4.4|9=61|35=0|34=140|49=ORDERGEN|52=20260415-15:54:43.212|56=ORDERACC|10=207|8=FIX.4.4|9=61|35=0|34=141|49=ORDERGEN|52=20260415-15:55:13.395|56=ORDERACC|10=218|8=FIX.4.4|9=61|35=0|34=142|49=ORDERGEN|52=20260415-15:55:43.610|56=ORDERACC|10=212|8=FIX.4.4|9=158|35=D|34=143|49=ORDERGEN|52=20260415-15:55:50.251|56=ORDERACC|11=ed31fbd5-8b71-4e56-b7bc-8124d663d23f|38=10|40=2|44=500|54=1|55=VALE3|60=20260415-15:55:50.249|10=053|8=FIX.4.4|9=61|35=0|34=144|49=ORDERGEN|52=20260415-15:56:20.599|56=ORDERACC|10=226|8=FIX.4.4|9=61|35=0|34=145|49=ORDERGEN|52=20260415-15:56:50.877|56=ORDERACC|10=229|8=FIX.4.4|9=159|35=D|34=146|49=ORDERGEN|52=20260415-15:57:05.993|56=ORDERACC|11=5dbfc243-3efb-4629-a408-09bb3014f3a9|38=100|40=2|44=100|54=1|55=VALE3|60=20260415-15:57:05.993|10=064|8=FIX.4.4|9=158|35=D|34=147|49=ORDERGEN|52=20260415-15:57:19.095|56=ORDERACC|11=af516272-2072-4ee5-86d3-01fa9fcfea15|38=50|40=2|44=100|54=1|55=PETR4|60=20260415-15:57:19.095|10=042|8=FIX.4.4|9=159|35=D|34=148|49=ORDERGEN|52=20260415-15:57:35.816|56=ORDERACC|11=75ed3115-3132-427b-808c-a93f5751a27d|38=199|40=2|44=166|54=1|55=VALE3|60=20260415-15:57:35.816|10=160|8=FIX.4.4|9=61|35=0|34=149|49=ORDERGEN|52=20260415-15:58:06.612|56=ORDERACC|10=223|8=FIX.4.4|9=61|35=0|34=150|49=ORDERGEN|52=20260415-15:58:37.338|56=ORDERACC|10=224|8=FIX.4.4|9=61|35=0|34=151|49=ORDERGEN|52=20260415-15:59:08.130|56=ORDERACC|10=214|8=FIX.4.4|9=61|35=0|34=152|49=ORDERGEN|52=20260415-15:59:39.014|56=ORDERACC|10=220|8=FIX.4.4|9=61|35=0|34=153|49=ORDERGEN|52=20260415-16:00:09.705|56=ORDERACC|10=212|8=FIX.4.4|9=61|35=0|34=154|49=ORDERGEN|52=20260415-16:00:40.399|56=ORDERACC|10=217|8=FIX.4.4|9=61|35=0|34=155|49=ORDERGEN|52=20260415-16:01:11.366|56=ORDERACC|10=211|8=FIX.4.4|9=61|35=0|34=156|49=ORDERGEN|52=20260415-16:01:41.379|56=ORDERACC|10=219|8=FIX.4.4|9=61|35=0|34=157|49=ORDERGEN|52=20260415-16:02:11.401|56=ORDERACC|10=204|8=FIX.4.4|9=61|35=0|34=158|49=ORDERGEN|52=20260415-16:02:42.298|56=ORDERACC|10=223|8=FIX.4.4|9=61|35=0|34=159|49=ORDERGEN|52=20260415-16:03:13.181|56=ORDERACC|10=214|8=FIX.4.4|9=61|35=0|34=160|49=ORDERGEN|52=20260415-16:03:44.052|56=ORDERACC|10=207|8=FIX.4.4|9=61|35=0|34=161|49=ORDERGEN|52=20260415-16:04:14.100|56=ORDERACC|10=200|8=FIX.4.4|9=61|35=0|34=162|49=ORDERGEN|52=20260415-16:04:44.101|56=ORDERACC|10=205|8=FIX.4.4|9=61|35=0|34=163|49=ORDERGEN|52=20260415-16:05:14.884|56=ORDERACC|10=222|8=FIX.4.4|9=61|35=0|34=164|49=ORDERGEN|52=20260415-16:05:45.160|56=ORDERACC|10=214|8=FIX.4.4|9=61|35=0|34=165|49=ORDERGEN|52=20260415-16:06:16.219|56=ORDERACC|10=219|8=FIX.4.4|9=61|35=0|34=166|49=ORDERGEN|52=20260415-16:06:46.819|56=ORDERACC|10=229|8=FIX.4.4|9=61|35=0|34=167|49=ORDERGEN|52=20260415-16:07:17.890|56=ORDERACC|10=228|8=FIX.4.4|9=61|35=0|34=168|49=ORDERGEN|52=20260415-16:07:48.407|56=ORDERACC|10=227|8=FIX.4.4|9=61|35=0|34=169|49=ORDERGEN|52=20260415-16:08:18.492|56=ORDERACC|10=230|8=FIX.4.4|9=61|35=0|34=170|49=ORDERGEN|52=20260415-16:08:49.218|56=ORDERACC|10=222|8=FIX.4.4|9=61|35=0|34=171|49=ORDERGEN|52=20260415-16:09:19.605|56=ORDERACC|10=221|8=FIX.4.4|9=61|35=0|34=172|49=ORDERGEN|52=20260415-16:09:50.591|56=ORDERACC|10=221|8=FIX.4.4|9=61|35=0|34=173|49=ORDERGEN|52=20260415-16:10:21.399|56=ORDERACC|10=218|8=FIX.4.4|9=61|35=0|34=174|49=ORDERGEN|52=20260415-16:10:52.504|56=ORDERACC|10=211|8=FIX.4.4|9=61|35=0|34=175|49=ORDERGEN|52=20260415-16:11:23.344|56=ORDERACC|10=213|8=FIX.4.4|9=61|35=0|34=176|49=ORDERGEN|52=20260415-16:11:54.045|56=ORDERACC|10=216|8=FIX.4.4|9=61|35=0|34=177|49=ORDERGEN|52=20260415-16:12:24.676|56=ORDERACC|10=225|8=FIX.4.4|9=61|35=0|34=178|49=ORDERGEN|52=20260415-16:12:55.729|56=ORDERACC|10=229|8=FIX.4.4|9=61|35=0|34=179|49=ORDERGEN|52=20260415-16:13:26.296|56=ORDERACC|10=228|8=FIX.4.4|9=61|35=0|34=180|49=ORDERGEN|52=20260415-16:13:57.131|56=ORDERACC|10=212|8=FIX.4.4|9=61|35=0|34=181|49=ORDERGEN|52=20260415-16:14:27.149|56=ORDERACC|10=220|8=FIX.4.4|9=61|35=0|34=182|49=ORDERGEN|52=20260415-16:14:57.314|56=ORDERACC|10=218|8=FIX.4.4|9=61|35=0|34=183|49=ORDERGEN|52=20260415-16:15:27.615|56=ORDERACC|10=221|8=FIX.4.4|9=61|35=0|34=184|49=ORDERGEN|52=20260415-16:15:58.696|56=ORDERACC|10=235|8=FIX.4.4|9=61|35=0|34=185|49=ORDERGEN|52=20260415-16:16:28.750|56=ORDERACC|10=225|8=FIX.4.4|9=61|35=0|34=186|49=ORDERGEN|52=20260415-16:16:58.966|56=ORDERACC|10=238|8=FIX.4.4|9=73|35=A|34=187|49=ORDERGEN|52=20260415-16:17:37.197|56=ORDERACC|98=0|108=30|10=022|8=FIX.4.4|9=61|35=0|34=188|49=ORDERGEN|52=20260415-16:18:07.688|56=ORDERACC|10=237|8=FIX.4.4|9=159|35=D|34=189|49=ORDERGEN|52=20260415-16:18:35.094|56=ORDERACC|11=9c189e8f-9013-4eee-8519-5fc8cde621a7|38=100|40=2|44=500|54=1|55=PETR4|60=20260415-16:18:35.092|10=115|8=FIX.4.4|9=61|35=0|34=190|49=ORDERGEN|52=20260415-16:19:05.638|56=ORDERACC|10=224|8=FIX.4.4|9=158|35=D|34=191|49=ORDERGEN|52=20260415-16:19:23.371|56=ORDERACC|11=b2159f1c-338b-4325-bcd4-34f338e9ca3b|38=10|40=2|44=500|54=1|55=VALE3|60=20260415-16:19:23.371|10=000|8=FIX.4.4|9=156|35=D|34=192|49=ORDERGEN|52=20260415-16:19:33.180|56=ORDERACC|11=922e5433-d1a7-47d9-8882-ef0583fb8aba|38=10|40=2|44=1|54=2|55=VALE3|60=20260415-16:19:33.179|10=135|8=FIX.4.4|9=61|35=0|34=193|49=ORDERGEN|52=20260415-16:20:03.622|56=ORDERACC|10=210|8=FIX.4.4|9=61|35=0|34=194|49=ORDERGEN|52=20260415-16:20:33.822|56=ORDERACC|10=216|8=FIX.4.4|9=61|35=0|34=195|49=ORDERGEN|52=20260415-16:21:03.855|56=ORDERACC|10=221|8=FIX.4.4|9=61|35=0|34=196|49=ORDERGEN|52=20260415-16:21:34.083|56=ORDERACC|10=219|8=FIX.4.4|9=61|35=0|34=197|49=ORDERGEN|52=20260415-16:22:04.297|56=ORDERACC|10=225|8=FIX.4.4|9=61|35=0|34=198|49=ORDERGEN|52=20260415-16:22:34.508|56=ORDERACC|10=224|8=FIX.4.4|9=61|35=0|34=199|49=ORDERGEN|52=20260415-16:23:04.775|56=ORDERACC|10=229|8=FIX.4.4|9=61|35=0|34=200|49=ORDERGEN|52=20260415-16:23:35.081|56=ORDERACC|10=206|8=FIX.4.4|9=61|35=0|34=201|49=ORDERGEN|52=20260415-16:24:05.406|56=ORDERACC|10=206|8=FIX.4.4|9=61|35=0|34=202|49=ORDERGEN|52=20260415-16:24:35.679|56=ORDERACC|10=222|8=FIX.4.4|9=61|35=0|34=203|49=ORDERGEN|52=20260415-16:25:05.911|56=ORDERACC|10=210|8=FIX.4.4|9=61|35=0|34=204|49=ORDERGEN|52=20260415-16:25:36.178|56=ORDERACC|10=220|8=FIX.4.4|9=73|35=A|34=205|49=ORDERGEN|52=20260415-16:26:13.239|56=ORDERACC|98=0|108=30|10=004|8=FIX.4.4|9=61|35=0|34=206|49=ORDERGEN|52=20260415-16:26:43.730|56=ORDERACC|10=215|8=FIX.4.4|9=61|35=0|34=207|49=ORDERGEN|52=20260415-16:27:13.962|56=ORDERACC|10=221|8=FIX.4.4|9=61|35=0|34=208|49=ORDERGEN|52=20260415-16:27:44.184|56=ORDERACC|10=222|8=FIX.4.4|9=61|35=0|34=209|49=ORDERGEN|52=20260415-16:28:14.440|56=ORDERACC|10=216|8=FIX.4.4|9=73|35=A|34=210|49=ORDERGEN|52=20260415-16:28:41.283|56=ORDERACC|98=0|108=30|10=002|8=FIX.4.4|9=61|35=0|34=211|49=ORDERGEN|52=20260415-16:29:11.867|56=ORDERACC|10=220|8=FIX.4.4|9=61|35=0|34=212|49=ORDERGEN|52=20260415-16:29:42.101|56=ORDERACC|10=206|8=FIX.4.4|9=61|35=0|34=213|49=ORDERGEN|52=20260415-16:30:12.335|56=ORDERACC|10=205|8=FIX.4.4|9=61|35=0|34=214|49=ORDERGEN|52=20260415-16:30:42.518|56=ORDERACC|10=212|8=FIX.4.4|9=162|35=D|34=215|49=ORDERGEN|52=20260415-16:30:42.600|56=ORDERACC|11=523f9276-20c8-4ff5-aa6e-fdd23f81563a|38=100|40=2|44=500.00|54=1|55=PETR4|60=20260415-16:30:42.598|10=210|8=FIX.4.4|9=61|35=0|34=216|49=ORDERGEN|52=20260415-16:31:12.847|56=ORDERACC|10=217|8=FIX.4.4|9=61|35=0|34=217|49=ORDERGEN|52=20260415-16:31:43.136|56=ORDERACC|10=213|8=FIX.4.4|9=61|35=0|34=218|49=ORDERGEN|52=20260415-16:32:13.400|56=ORDERACC|10=206|8=FIX.4.4|9=61|35=0|34=219|49=ORDERGEN|52=20260415-16:32:43.660|56=ORDERACC|10=218|8=FIX.4.4|9=61|35=0|34=220|49=ORDERGEN|52=20260415-16:33:13.925|56=ORDERACC|10=212|8=FIX.4.4|9=155|35=D|34=221|49=ORDERGEN|52=20260415-16:33:31.512|56=ORDERACC|11=10420b56-a22f-4a69-be46-697f8c3bd27c|38=1|40=2|44=1|54=1|55=PETR4|60=20260415-16:33:31.512|10=061|8=FIX.4.4|9=61|35=0|34=222|49=ORDERGEN|52=20260415-16:34:01.737|56=ORDERACC|10=213|8=FIX.4.4|9=61|35=0|34=223|49=ORDERGEN|52=20260415-16:34:31.928|56=ORDERACC|10=219|8=FIX.4.4|9=155|35=D|34=224|49=ORDERGEN|52=20260415-16:34:41.610|56=ORDERACC|11=83696929-0fe1-480b-bb58-36e64b8d41d8|38=1|40=2|44=1|54=2|55=PETR4|60=20260415-16:34:41.609|10=001|8=FIX.4.4|9=155|35=D|34=225|49=ORDERGEN|52=20260415-16:34:46.323|56=ORDERACC|11=0a65414e-d467-4906-8825-13a3eb5c3639|38=1|40=2|44=1|54=1|55=VIIA4|60=20260415-16:34:46.323|10=130|8=FIX.4.4|9=61|35=0|34=226|49=ORDERGEN|52=20260415-16:35:16.509|56=ORDERACC|10=221|8=FIX.4.4|9=73|35=A|34=227|49=ORDERGEN|52=20260415-16:35:43.743|56=ORDERACC|98=0|108=30|10=011|8=FIX.4.4|9=61|35=0|34=228|49=ORDERGEN|52=20260415-16:36:14.412|56=ORDERACC|10=215|8=FIX.4.4|9=61|35=0|34=229|49=ORDERGEN|52=20260415-16:36:44.711|56=ORDERACC|10=221|8=FIX.4.4|9=61|35=0|34=230|49=ORDERGEN|52=20260415-16:37:14.909|56=ORDERACC|10=220|8=FIX.4.4|9=61|35=0|34=231|49=ORDERGEN|52=20260415-16:37:45.128|56=ORDERACC|10=218|8=FIX.4.4|9=61|35=0|34=232|49=ORDERGEN|52=20260415-16:38:15.361|56=ORDERACC|10=216|8=FIX.4.4|9=61|35=0|34=233|49=ORDERGEN|52=20260415-16:38:45.648|56=ORDERACC|10=228|8=FIX.4.4|9=61|35=0|34=234|49=ORDERGEN|52=20260415-16:39:15.895|56=ORDERACC|10=231|8=FIX.4.4|9=61|35=0|34=235|49=ORDERGEN|52=20260415-16:39:46.149|56=ORDERACC|10=228|8=FIX.4.4|9=61|35=0|34=236|49=ORDERGEN|52=20260415-16:40:16.333|56=ORDERACC|10=213|8=FIX.4.4|9=61|35=0|34=237|49=ORDERGEN|52=20260415-16:40:46.514|56=ORDERACC|10=218|8=FIX.4.4|9=61|35=0|34=238|49=ORDERGEN|52=20260415-16:41:16.715|56=ORDERACC|10=220|8=FIX.4.4|9=61|35=0|34=239|49=ORDERGEN|52=20260415-16:41:46.900|56=ORDERACC|10=220|8=FIX.4.4|9=61|35=0|34=240|49=ORDERGEN|52=20260415-16:42:17.116|56=ORDERACC|10=210|8=FIX.4.4|9=61|35=0|34=241|49=ORDERGEN|52=20260415-16:42:47.298|56=ORDERACC|10=225|8=FIX.4.4|9=61|35=0|34=242|49=ORDERGEN|52=20260415-16:43:17.502|56=ORDERACC|10=212|8=FIX.4.4|9=61|35=0|34=243|49=ORDERGEN|52=20260415-16:43:47.735|56=ORDERACC|10=224|8=FIX.4.4|9=73|35=A|34=244|49=ORDERGEN|52=20260415-16:44:07.026|56=ORDERACC|98=0|108=30|10=004|8=FIX.4.4|9=61|35=0|34=245|49=ORDERGEN|52=20260415-16:44:37.141|56=ORDERACC|10=217|8=FIX.4.4|9=61|35=0|34=246|49=ORDERGEN|52=20260415-16:45:07.807|56=ORDERACC|10=225|8=FIX.4.4|9=61|35=0|34=247|49=ORDERGEN|52=20260415-16:45:38.269|56=ORDERACC|10=232|8=FIX.4.4|9=61|35=0|34=248|49=ORDERGEN|52=20260415-16:46:08.835|56=ORDERACC|10=230|8=FIX.4.4|9=61|35=0|34=249|49=ORDERGEN|52=20260415-16:46:39.390|56=ORDERACC|10=231|8=FIX.4.4|9=61|35=0|34=250|49=ORDERGEN|52=20260415-16:47:09.638|56=ORDERACC|10=226|8=FIX.4.4|9=61|35=0|34=251|49=ORDERGEN|52=20260415-16:47:39.934|56=ORDERACC|10=229|8=FIX.4.4|9=61|35=0|34=252|49=ORDERGEN|52=20260415-16:48:10.154|56=ORDERACC|10=214|8=FIX.4.4|9=61|35=0|34=253|49=ORDERGEN|52=20260415-16:48:40.371|56=ORDERACC|10=219|8=FIX.4.4|9=61|35=0|34=254|49=ORDERGEN|52=20260415-16:49:10.610|56=ORDERACC|10=214|8=FIX.4.4|9=61|35=0|34=255|49=ORDERGEN|52=20260415-16:49:40.839|56=ORDERACC|10=231|8=FIX.4.4|9=61|35=0|34=256|49=ORDERGEN|52=20260415-16:50:11.089|56=ORDERACC|10=219|8=FIX.4.4|9=61|35=0|34=257|49=ORDERGEN|52=20260415-16:50:41.323|56=ORDERACC|10=214|8=FIX.4.4|9=61|35=0|34=258|49=ORDERGEN|52=20260415-16:51:11.574|56=ORDERACC|10=221|8=FIX.4.4|9=73|35=A|34=259|49=ORDERGEN|52=20260415-16:53:23.477|56=ORDERACC|98=0|108=30|10=018|8=FIX.4.4|9=61|35=0|34=260|49=ORDERGEN|52=20260415-16:53:54.221|56=ORDERACC|10=212|8=FIX.4.4|9=61|35=0|34=261|49=ORDERGEN|52=20260415-16:54:29.798|56=ORDERACC|10=235|8=FIX.4.4|9=61|35=0|34=262|49=ORDERGEN|52=20260415-16:55:00.089|56=ORDERACC|10=219|8=FIX.4.4|9=61|35=0|34=263|49=ORDERGEN|52=20260415-16:55:30.348|56=ORDERACC|10=221|8=FIX.4.4|9=61|35=0|34=264|49=ORDERGEN|52=20260415-16:56:00.465|56=ORDERACC|10=220|8=FIX.4.4|9=61|35=0|34=265|49=ORDERGEN|52=20260415-16:56:30.697|56=ORDERACC|10=231|8=FIX.4.4|9=160|35=D|34=266|49=ORDERGEN|52=20260415-16:56:31.424|56=ORDERACC|11=97c0ab3b-599f-4863-a16c-18df10222be9|38=99999|40=2|44=10|54=1|55=PETR4|60=20260415-16:56:31.421|10=107|8=FIX.4.4|9=158|35=D|34=267|49=ORDERGEN|52=20260415-16:56:44.812|56=ORDERACC|11=5707bc0a-d19b-4741-ab35-321dd0f9506f|38=100|40=2|44=10|54=2|55=PETR4|60=20260415-16:56:44.812|10=229|8=FIX.4.4|9=158|35=D|34=268|49=ORDERGEN|52=20260415-16:57:03.568|56=ORDERACC|11=439f5637-bbf3-4741-a5cb-6a1d1bcd140d|38=10|40=2|44=154|54=1|55=VALE3|60=20260415-16:57:03.568|10=066|8=FIX.4.4|9=158|35=D|34=269|49=ORDERGEN|52=20260415-16:57:22.559|56=ORDERACC|11=9ba1bb3e-20f7-4255-914d-cb3531adc4b8|38=10|40=2|44=100|54=2|55=VIIA4|60=20260415-16:57:22.559|10=062|8=FIX.4.4|9=61|35=0|34=270|49=ORDERGEN|52=20260415-16:57:52.925|56=ORDERACC|10=226|8=FIX.4.4|9=61|35=0|34=271|49=ORDERGEN|52=20260415-16:58:23.398|56=ORDERACC|10=230|8=FIX.4.4|9=61|35=0|34=272|49=ORDERGEN|52=20260415-16:58:54.043|56=ORDERACC|10=222|8=FIX.4.4|9=160|35=D|34=273|49=ORDERGEN|52=20260415-16:59:02.420|56=ORDERACC|11=abdc638f-a245-4ec5-8b0b-c1a8cb1576c2|38=10000|40=2|44=10|54=2|55=VIIA4|60=20260415-16:59:02.420|10=219|8=FIX.4.4|9=61|35=0|34=274|49=ORDERGEN|52=20260415-16:59:32.859|56=ORDERACC|10=236|8=FIX.4.4|9=61|35=0|34=275|49=ORDERGEN|52=20260415-17:00:03.296|56=ORDERACC|10=217|8=FIX.4.4|9=73|35=A|34=276|49=ORDERGEN|52=20260415-17:13:57.975|56=ORDERACC|98=0|108=30|10=024|8=FIX.4.4|9=155|35=D|34=277|49=ORDERGEN|52=20260415-17:14:05.602|56=ORDERACC|11=799ad172-d086-4f79-bb8a-26b0aaf0723e|38=1|40=2|44=1|54=1|55=PETR4|60=20260415-17:14:05.594|10=136|8=FIX.4.4|9=73|35=A|34=278|49=ORDERGEN|52=20260415-17:14:34.672|56=ORDERACC|98=0|108=30|10=016|8=FIX.4.4|9=155|35=D|34=279|49=ORDERGEN|52=20260415-17:14:43.101|56=ORDERACC|11=56f7fc90-69a7-482c-9682-91ba9dead564|38=1|40=2|44=1|54=1|55=PETR4|60=20260415-17:14:43.098|10=113|8=FIX.4.4|9=158|35=D|34=280|49=ORDERGEN|52=20260415-17:14:55.658|56=ORDERACC|11=bf556cd4-b54b-4260-b8f4-c2275a75b369|38=10|40=2|44=100|54=1|55=PETR4|60=20260415-17:14:55.658|10=251|